{
  "contractName": "Adoption",
  "abi": [
    {
      "inputs": [
        {
          "internalType": "uint256",
          "name": "",
          "type": "uint256"
        }
      ],
      "name": "adopters",
      "outputs": [
        {
          "internalType": "address",
          "name": "",
          "type": "address"
        }
      ],
      "stateMutability": "view",
      "type": "function",
      "constant": true
    },
    {
      "inputs": [
        {
          "internalType": "uint256",
          "name": "petId",
          "type": "uint256"
        }
      ],
      "name": "adopt",
      "outputs": [
        {
          "internalType": "uint256",
          "name": "",
          "type": "uint256"
        }
      ],
      "stateMutability": "nonpayable",
      "type": "function"
    },
    {
      "inputs": [],
      "name": "getAdopters",
      "outputs": [
        {
          "internalType": "address[16]",
          "name": "",
          "type": "address[16]"
        }
      ],
      "stateMutability": "view",
      "type": "function",
      "constant": true
    }
  ],
  "bytecode": "0x608060405234801561001057600080fd5b5061044d806100206000396000f3fe608060405234801561001057600080fd5b506004361061005e576000357c0100000000000000000000000000000000000000000000000000000000900480633de4eb171461006357806343ae80d3146100815780638588b2c5146100b1575b600080fd5b61006b6100e1565b6040516100789190610310565b60405180910390f35b61009b60048036038101906100969190610367565b610162565b6040516100a891906103a3565b60405180910390f35b6100cb60048036038101906100c69190610367565b610198565b6040516100d891906103cd565b60405180910390f35b6100e9610210565b6000601080602002604051908101604052809291908260108015610158576020028201915b8160009054906101000a900473ffffffffffffffffffffffffffffffffffffffff1673ffffffffffffffffffffffffffffffffffffffff168152602001906001019080831161010e575b5050505050905090565b6000816010811061017257600080fd5b016000915054906101000a900473ffffffffffffffffffffffffffffffffffffffff1681565b60008082101580156101ab5750600f8211155b6101b457600080fd5b33600083601081106101c9576101c86103e8565b5b0160006101000a81548173ffffffffffffffffffffffffffffffffffffffff021916908373ffffffffffffffffffffffffffffffffffffffff160217905550819050919050565b604051806102000160405280601090602082028036833780820191505090505090565b600060109050919050565b600081905092915050565b6000819050919050565b600073ffffffffffffffffffffffffffffffffffffffff82169050919050565b600061027e82610253565b9050919050565b61028e81610273565b82525050565b60006102a08383610285565b60208301905092915050565b6000602082019050919050565b6102c281610233565b6102cc818461023e565b92506102d782610249565b8060005b838110156103085781516102ef8782610294565b96506102fa836102ac565b9250506001810190506102db565b505050505050565b60006102008201905061032660008301846102b9565b92915050565b600080fd5b6000819050919050565b61034481610331565b811461034f57600080fd5b50565b6000813590506103618161033b565b92915050565b60006020828403121561037d5761037c61032c565b5b600061038b84828501610352565b91505092915050565b61039d81610273565b82525050565b60006020820190506103b86000830184610394565b92915050565b6103c781610331565b82525050565b60006020820190506103e260008301846103be565b92915050565b7f4e487b7100000000000000000000000000000000000000000000000000000000600052603260045260246000fdfea2646970667358221220343bc2109aac14f91705ec54ac848eedfba10f34765b196c4c4394a3a73edfd264736f6c63430008090033",
  "immutableReferences": {},
  "source": "// SPDX-License-Identifier: MIT\r\npragma solidity ^0.8.9;\r\n\r\ncontract Adoption{\r\n    address[16] public adopters;\r\n\r\n      // Adopting a pet\r\n     function adopt(uint petId) public returns(uint){\r\n        require(petId >=0 && petId<=15);\r\n     \r\n\r\n     adopters[petId] = msg.sender;\r\n\r\n      return petId;\r\n     }\r\n\r\n     // function to return the entire array.\r\n       // Retrieving the adopters\r\n     function getAdopters() public view returns(address[16] memory){\r\n            return adopters;\r\n     }\r\n}\r\n     // solidity is compiled language means first compile the code and then execute by the EVM machine.\r\n",
  "sourcePath": "C:\\Users\\Dell\\OneDrive\\Desktop\\a\\pet-shop-box\\contracts\\Adoption.sol",
  "compiler": {
    "name": "solc",
    "version": "0.8.9+commit.e5eed63a.Emscripten.clang"
  },
  "schemaVersion": "3.4.16",
  "updatedAt": "2024-07-29T13:34:30.503Z",
  "networkType": "ethereum",
  "devdoc": {
    "kind": "dev",
    "methods": {},
    "version": 1
  },
  "userdoc": {
    "kind": "user",
    "methods": {},
    "version": 1
  }
}